{
  "contractName": "Color",
  "abi": [
    {
      "inputs": [],
      "stateMutability": "nonpayable",
      "type": "constructor"
    },
    {
      "anonymous": false,
      "inputs": [
        {
          "indexed": true,
          "internalType": "address",
          "name": "owner",
          "type": "address"
        },
        {
          "indexed": true,
          "internalType": "address",
          "name": "approved",
          "type": "address"
        },
        {
          "indexed": true,
          "internalType": "uint256",
          "name": "tokenId",
          "type": "uint256"
        }
      ],
      "name": "Approval",
      "type": "event"
    },
    {
      "anonymous": false,
      "inputs": [
        {
          "indexed": true,
          "internalType": "address",
          "name": "owner",
          "type": "address"
        },
        {
          "indexed": true,
          "internalType": "address",
          "name": "operator",
          "type": "address"
        },
        {
          "indexed": false,
          "internalType": "bool",
          "name": "approved",
          "type": "bool"
        }
      ],
      "name": "ApprovalForAll",
      "type": "event"
    },
    {
      "anonymous": false,
      "inputs": [
        {
          "indexed": true,
          "internalType": "address",
          "name": "from",
          "type": "address"
        },
        {
          "indexed": true,
          "internalType": "address",
          "name": "to",
          "type": "address"
        },
        {
          "indexed": true,
          "internalType": "uint256",
          "name": "tokenId",
          "type": "uint256"
        }
      ],
      "name": "Transfer",
      "type": "event"
    },
    {
      "inputs": [
        {
          "internalType": "address",
          "name": "to",
          "type": "address"
        },
        {
          "internalType": "uint256",
          "name": "tokenId",
          "type": "uint256"
        }
      ],
      "name": "approve",
      "outputs": [],
      "stateMutability": "nonpayable",
      "type": "function"
    },
    {
      "inputs": [
        {
          "internalType": "address",
          "name": "owner",
          "type": "address"
        }
      ],
      "name": "balanceOf",
      "outputs": [
        {
          "internalType": "uint256",
          "name": "",
          "type": "uint256"
        }
      ],
      "stateMutability": "view",
      "type": "function",
      "constant": true
    },
    {
      "inputs": [
        {
          "internalType": "uint256",
          "name": "",
          "type": "uint256"
        }
      ],
      "name": "colors",
      "outputs": [
        {
          "internalType": "string",
          "name": "",
          "type": "string"
        }
      ],
      "stateMutability": "view",
      "type": "function",
      "constant": true
    },
    {
      "inputs": [
        {
          "internalType": "uint256",
          "name": "tokenId",
          "type": "uint256"
        }
      ],
      "name": "getApproved",
      "outputs": [
        {
          "internalType": "address",
          "name": "",
          "type": "address"
        }
      ],
      "stateMutability": "view",
      "type": "function",
      "constant": true
    },
    {
      "inputs": [
        {
          "internalType": "address",
          "name": "owner",
          "type": "address"
        },
        {
          "internalType": "address",
          "name": "operator",
          "type": "address"
        }
      ],
      "name": "isApprovedForAll",
      "outputs": [
        {
          "internalType": "bool",
          "name": "",
          "type": "bool"
        }
      ],
      "stateMutability": "view",
      "type": "function",
      "constant": true
    },
    {
      "inputs": [],
      "name": "name",
      "outputs": [
        {
          "internalType": "string",
          "name": "",
          "type": "string"
        }
      ],
      "stateMutability": "view",
      "type": "function",
      "constant": true
    },
    {
      "inputs": [
        {
          "internalType": "uint256",
          "name": "tokenId",
          "type": "uint256"
        }
      ],
      "name": "ownerOf",
      "outputs": [
        {
          "internalType": "address",
          "name": "",
          "type": "address"
        }
      ],
      "stateMutability": "view",
      "type": "function",
      "constant": true
    },
    {
      "inputs": [
        {
          "internalType": "address",
          "name": "from",
          "type": "address"
        },
        {
          "internalType": "address",
          "name": "to",
          "type": "address"
        },
        {
          "internalType": "uint256",
          "name": "tokenId",
          "type": "uint256"
        }
      ],
      "name": "safeTransferFrom",
      "outputs": [],
      "stateMutability": "nonpayable",
      "type": "function"
    },
    {
      "inputs": [
        {
          "internalType": "address",
          "name": "from",
          "type": "address"
        },
        {
          "internalType": "address",
          "name": "to",
          "type": "address"
        },
        {
          "internalType": "uint256",
          "name": "tokenId",
          "type": "uint256"
        },
        {
          "internalType": "bytes",
          "name": "_data",
          "type": "bytes"
        }
      ],
      "name": "safeTransferFrom",
      "outputs": [],
      "stateMutability": "nonpayable",
      "type": "function"
    },
    {
      "inputs": [
        {
          "internalType": "address",
          "name": "operator",
          "type": "address"
        },
        {
          "internalType": "bool",
          "name": "approved",
          "type": "bool"
        }
      ],
      "name": "setApprovalForAll",
      "outputs": [],
      "stateMutability": "nonpayable",
      "type": "function"
    },
    {
      "inputs": [
        {
          "internalType": "bytes4",
          "name": "interfaceId",
          "type": "bytes4"
        }
      ],
      "name": "supportsInterface",
      "outputs": [
        {
          "internalType": "bool",
          "name": "",
          "type": "bool"
        }
      ],
      "stateMutability": "view",
      "type": "function",
      "constant": true
    },
    {
      "inputs": [],
      "name": "symbol",
      "outputs": [
        {
          "internalType": "string",
          "name": "",
          "type": "string"
        }
      ],
      "stateMutability": "view",
      "type": "function",
      "constant": true
    },
    {
      "inputs": [
        {
          "internalType": "uint256",
          "name": "index",
          "type": "uint256"
        }
      ],
      "name": "tokenByIndex",
      "outputs": [
        {
          "internalType": "uint256",
          "name": "",
          "type": "uint256"
        }
      ],
      "stateMutability": "view",
      "type": "function",
      "constant": true
    },
    {
      "inputs": [
        {
          "internalType": "address",
          "name": "owner",
          "type": "address"
        },
        {
          "internalType": "uint256",
          "name": "index",
          "type": "uint256"
        }
      ],
      "name": "tokenOfOwnerByIndex",
      "outputs": [
        {
          "internalType": "uint256",
          "name": "",
          "type": "uint256"
        }
      ],
      "stateMutability": "view",
      "type": "function",
      "constant": true
    },
    {
      "inputs": [
        {
          "internalType": "uint256",
          "name": "tokenId",
          "type": "uint256"
        }
      ],
      "name": "tokenURI",
      "outputs": [
        {
          "internalType": "string",
          "name": "",
          "type": "string"
        }
      ],
      "stateMutability": "view",
      "type": "function",
      "constant": true
    },
    {
      "inputs": [],
      "name": "totalSupply",
      "outputs": [
        {
          "internalType": "uint256",
          "name": "",
          "type": "uint256"
        }
      ],
      "stateMutability": "view",
      "type": "function",
      "constant": true
    },
    {
      "inputs": [
        {
          "internalType": "address",
          "name": "from",
          "type": "address"
        },
        {
          "internalType": "address",
          "name": "to",
          "type": "address"
        },
        {
          "internalType": "uint256",
          "name": "tokenId",
          "type": "uint256"
        }
      ],
      "name": "transferFrom",
      "outputs": [],
      "stateMutability": "nonpayable",
      "type": "function"
    },
    {
      "inputs": [
        {
          "internalType": "string",
          "name": "_color",
          "type": "string"
        }
      ],
      "name": "mint",
      "outputs": [],
      "stateMutability": "nonpayable",
      "type": "function"
    }
  ],
  "bytecode": "0x60806040523480156200001157600080fd5b506040518060400160405280600581526020017f436f6c6f720000000000000000000000000000000000000000000000000000008152506040518060400160405280600581526020017f434f4c4f52000000000000000000000000000000000000000000000000000000815250816000908051906020019062000096929190620000b8565b508060019080519060200190620000af929190620000b8565b505050620001cd565b828054620000c69062000197565b90600052602060002090601f016020900481019282620000ea576000855562000136565b82601f106200010557805160ff191683800117855562000136565b8280016001018555821562000136579182015b828111156200013557825182559160200191906001019062000118565b5b50905062000145919062000149565b5090565b5b80821115620001645760008160009055506001016200014a565b5090565b7f4e487b7100000000000000000000000000000000000000000000000000000000600052602260045260246000fd5b60006002820490506001821680620001b057607f821691505b60208210811415620001c757620001c662000168565b5b50919050565b6131c980620001dd6000396000f3fe608060405234801561001057600080fd5b50600436106101165760003560e01c80636352211e116100a2578063b88d4fde11610071578063b88d4fde14610305578063bd11f69d14610321578063c87b56dd14610351578063d85d3d2714610381578063e985e9c51461039d57610116565b80636352211e1461026b57806370a082311461029b57806395d89b41146102cb578063a22cb465146102e957610116565b806318160ddd116100e957806318160ddd146101b557806323b872dd146101d35780632f745c59146101ef57806342842e0e1461021f5780634f6ccce71461023b57610116565b806301ffc9a71461011b57806306fdde031461014b578063081812fc14610169578063095ea7b314610199575b600080fd5b61013560048036038101906101309190611ef8565b6103cd565b6040516101429190611f40565b60405180910390f35b610153610447565b6040516101609190611ff4565b60405180910390f35b610183600480360381019061017e919061204c565b6104d9565b60405161019091906120ba565b60405180910390f35b6101b360048036038101906101ae9190612101565b61055e565b005b6101bd610676565b6040516101ca9190612150565b60405180910390f35b6101ed60048036038101906101e8919061216b565b610683565b005b61020960048036038101906102049190612101565b6106e3565b6040516102169190612150565b60405180910390f35b6102396004803603810190610234919061216b565b610788565b005b6102556004803603810190610250919061204c565b6107a8565b6040516102629190612150565b60405180910390f35b6102856004803603810190610280919061204c565b610819565b60405161029291906120ba565b60405180910390f35b6102b560048036038101906102b091906121be565b6108cb565b6040516102c29190612150565b60405180910390f35b6102d3610983565b6040516102e09190611ff4565b60405180910390f35b61030360048036038101906102fe9190612217565b610a15565b005b61031f600480360381019061031a919061238c565b610a2b565b005b61033b6004803603810190610336919061204c565b610a8d565b6040516103489190611ff4565b60405180910390f35b61036b6004803603810190610366919061204c565b610b39565b6040516103789190611ff4565b60405180910390f35b61039b600480360381019061039691906124b0565b610be0565b005b6103b760048036038101906103b291906124f9565b610cad565b6040516103c49190611f40565b60405180910390f35b60007f780e9d63000000000000000000000000000000000000000000000000000000007bffffffffffffffffffffffffffffffffffffffffffffffffffffffff1916827bffffffffffffffffffffffffffffffffffffffffffffffffffffffff19161480610440575061043f82610d41565b5b9050919050565b60606000805461045690612568565b80601f016020809104026020016040519081016040528092919081815260200182805461048290612568565b80156104cf5780601f106104a4576101008083540402835291602001916104cf565b820191906000526020600020905b8154815290600101906020018083116104b257829003601f168201915b5050505050905090565b60006104e482610e23565b610523576040517f08c379a000000000000000000000000000000000000000000000000000000000815260040161051a9061260c565b60405180910390fd5b6004600083815260200190815260200160002060009054906101000a900473ffffffffffffffffffffffffffffffffffffffff169050919050565b600061056982610819565b90508073ffffffffffffffffffffffffffffffffffffffff168373ffffffffffffffffffffffffffffffffffffffff1614156105da576040517f08c379a00000000000000000000000000000000000000000000000000000000081526004016105d19061269e565b60405180910390fd5b8073ffffffffffffffffffffffffffffffffffffffff166105f9610e8f565b73ffffffffffffffffffffffffffffffffffffffff161480610628575061062781610622610e8f565b610cad565b5b610667576040517f08c379a000000000000000000000000000000000000000000000000000000000815260040161065e90612730565b60405180910390fd5b6106718383610e97565b505050565b6000600880549050905090565b61069461068e610e8f565b82610f50565b6106d3576040517f08c379a00000000000000000000000000000000000000000000000000000000081526004016106ca906127c2565b60405180910390fd5b6106de83838361102e565b505050565b60006106ee836108cb565b821061072f576040517f08c379a000000000000000000000000000000000000000000000000000000000815260040161072690612854565b60405180910390fd5b600660008473ffffffffffffffffffffffffffffffffffffffff1673ffffffffffffffffffffffffffffffffffffffff168152602001908152602001600020600083815260200190815260200160002054905092915050565b6107a383838360405180602001604052806000815250610a2b565b505050565b60006107b2610676565b82106107f3576040517f08c379a00000000000000000000000000000000000000000000000000000000081526004016107ea906128e6565b60405180910390fd5b6008828154811061080757610806612906565b5b90600052602060002001549050919050565b6000806002600084815260200190815260200160002060009054906101000a900473ffffffffffffffffffffffffffffffffffffffff169050600073ffffffffffffffffffffffffffffffffffffffff168173ffffffffffffffffffffffffffffffffffffffff1614156108c2576040517f08c379a00000000000000000000000000000000000000000000000000000000081526004016108b9906129a7565b60405180910390fd5b80915050919050565b60008073ffffffffffffffffffffffffffffffffffffffff168273ffffffffffffffffffffffffffffffffffffffff16141561093c576040517f08c379a000000000000000000000000000000000000000000000000000000000815260040161093390612a39565b60405180910390fd5b600360008373ffffffffffffffffffffffffffffffffffffffff1673ffffffffffffffffffffffffffffffffffffffff168152602001908152602001600020549050919050565b60606001805461099290612568565b80601f01602080910402602001604051908101604052809291908181526020018280546109be90612568565b8015610a0b5780601f106109e057610100808354040283529160200191610a0b565b820191906000526020600020905b8154815290600101906020018083116109ee57829003601f168201915b5050505050905090565b610a27610a20610e8f565b8383611295565b5050565b610a3c610a36610e8f565b83610f50565b610a7b576040517f08c379a0000000000000000000000000000000000000000000000000000000008152600401610a72906127c2565b60405180910390fd5b610a8784848484611402565b50505050565b600a8181548110610a9d57600080fd5b906000526020600020016000915090508054610ab890612568565b80601f0160208091040260200160405190810160405280929190818152602001828054610ae490612568565b8015610b315780601f10610b0657610100808354040283529160200191610b31565b820191906000526020600020905b815481529060010190602001808311610b1457829003601f168201915b505050505081565b6060610b4482610e23565b610b83576040517f08c379a0000000000000000000000000000000000000000000000000000000008152600401610b7a90612acb565b60405180910390fd5b6000610b8d61145e565b90506000815111610bad5760405180602001604052806000815250610bd8565b80610bb784611475565b604051602001610bc8929190612b27565b6040516020818303038152906040525b915050919050565b600b81604051610bf09190612b4b565b908152602001604051809103902060009054906101000a900460ff1615610c1657600080fd5b600a81908060018154018082558091505060019003906000526020600020016000909190919091509080519060200190610c51929190611de9565b5060006001600a80549050610c669190612b91565b9050610c7233826115d6565b6001600b83604051610c849190612b4b565b908152602001604051809103902060006101000a81548160ff0219169083151502179055505050565b6000600560008473ffffffffffffffffffffffffffffffffffffffff1673ffffffffffffffffffffffffffffffffffffffff16815260200190815260200160002060008373ffffffffffffffffffffffffffffffffffffffff1673ffffffffffffffffffffffffffffffffffffffff16815260200190815260200160002060009054906101000a900460ff16905092915050565b60007f80ac58cd000000000000000000000000000000000000000000000000000000007bffffffffffffffffffffffffffffffffffffffffffffffffffffffff1916827bffffffffffffffffffffffffffffffffffffffffffffffffffffffff19161480610e0c57507f5b5e139f000000000000000000000000000000000000000000000000000000007bffffffffffffffffffffffffffffffffffffffffffffffffffffffff1916827bffffffffffffffffffffffffffffffffffffffffffffffffffffffff1916145b80610e1c5750610e1b826117b0565b5b9050919050565b60008073ffffffffffffffffffffffffffffffffffffffff166002600084815260200190815260200160002060009054906101000a900473ffffffffffffffffffffffffffffffffffffffff1673ffffffffffffffffffffffffffffffffffffffff1614159050919050565b600033905090565b816004600083815260200190815260200160002060006101000a81548173ffffffffffffffffffffffffffffffffffffffff021916908373ffffffffffffffffffffffffffffffffffffffff160217905550808273ffffffffffffffffffffffffffffffffffffffff16610f0a83610819565b73ffffffffffffffffffffffffffffffffffffffff167f8c5be1e5ebec7d5bd14f71427d1e84f3dd0314c0f7b2291e5b200ac8c7c3b92560405160405180910390a45050565b6000610f5b82610e23565b610f9a576040517f08c379a0000000000000000000000000000000000000000000000000000000008152600401610f9190612c37565b60405180910390fd5b6000610fa583610819565b90508073ffffffffffffffffffffffffffffffffffffffff168473ffffffffffffffffffffffffffffffffffffffff16148061101457508373ffffffffffffffffffffffffffffffffffffffff16610ffc846104d9565b73ffffffffffffffffffffffffffffffffffffffff16145b8061102557506110248185610cad565b5b91505092915050565b8273ffffffffffffffffffffffffffffffffffffffff1661104e82610819565b73ffffffffffffffffffffffffffffffffffffffff16146110a4576040517f08c379a000000000000000000000000000000000000000000000000000000000815260040161109b90612cc9565b60405180910390fd5b600073ffffffffffffffffffffffffffffffffffffffff168273ffffffffffffffffffffffffffffffffffffffff161415611114576040517f08c379a000000000000000000000000000000000000000000000000000000000815260040161110b90612d5b565b60405180910390fd5b61111f83838361181a565b61112a600082610e97565b6001600360008573ffffffffffffffffffffffffffffffffffffffff1673ffffffffffffffffffffffffffffffffffffffff168152602001908152602001600020600082825461117a9190612b91565b925050819055506001600360008473ffffffffffffffffffffffffffffffffffffffff1673ffffffffffffffffffffffffffffffffffffffff16815260200190815260200160002060008282546111d19190612d7b565b92505081905550816002600083815260200190815260200160002060006101000a81548173ffffffffffffffffffffffffffffffffffffffff021916908373ffffffffffffffffffffffffffffffffffffffff160217905550808273ffffffffffffffffffffffffffffffffffffffff168473ffffffffffffffffffffffffffffffffffffffff167fddf252ad1be2c89b69c2b068fc378daa952ba7f163c4a11628f55a4df523b3ef60405160405180910390a461129083838361192e565b505050565b8173ffffffffffffffffffffffffffffffffffffffff168373ffffffffffffffffffffffffffffffffffffffff161415611304576040517f08c379a00000000000000000000000000000000000000000000000000000000081526004016112fb90612e1d565b60405180910390fd5b80600560008573ffffffffffffffffffffffffffffffffffffffff1673ffffffffffffffffffffffffffffffffffffffff16815260200190815260200160002060008473ffffffffffffffffffffffffffffffffffffffff1673ffffffffffffffffffffffffffffffffffffffff16815260200190815260200160002060006101000a81548160ff0219169083151502179055508173ffffffffffffffffffffffffffffffffffffffff168373ffffffffffffffffffffffffffffffffffffffff167f17307eab39ab6107e8899845ad3d59bd9653f200f220920489ca2b5937696c31836040516113f59190611f40565b60405180910390a3505050565b61140d84848461102e565b61141984848484611933565b611458576040517f08c379a000000000000000000000000000000000000000000000000000000000815260040161144f90612eaf565b60405180910390fd5b50505050565b606060405180602001604052806000815250905090565b606060008214156114bd576040518060400160405280600181526020017f300000000000000000000000000000000000000000000000000000000000000081525090506115d1565b600082905060005b600082146114ef5780806114d890612ecf565b915050600a826114e89190612f47565b91506114c5565b60008167ffffffffffffffff81111561150b5761150a612261565b5b6040519080825280601f01601f19166020018201604052801561153d5781602001600182028036833780820191505090505b5090505b600085146115ca576001826115569190612b91565b9150600a856115659190612f78565b60306115719190612d7b565b60f81b81838151811061158757611586612906565b5b60200101907effffffffffffffffffffffffffffffffffffffffffffffffffffffffffffff1916908160001a905350600a856115c39190612f47565b9450611541565b8093505050505b919050565b600073ffffffffffffffffffffffffffffffffffffffff168273ffffffffffffffffffffffffffffffffffffffff161415611646576040517f08c379a000000000000000000000000000000000000000000000000000000000815260040161163d90612ff5565b60405180910390fd5b61164f81610e23565b1561168f576040517f08c379a000000000000000000000000000000000000000000000000000000000815260040161168690613061565b60405180910390fd5b61169b6000838361181a565b6001600360008473ffffffffffffffffffffffffffffffffffffffff1673ffffffffffffffffffffffffffffffffffffffff16815260200190815260200160002060008282546116eb9190612d7b565b92505081905550816002600083815260200190815260200160002060006101000a81548173ffffffffffffffffffffffffffffffffffffffff021916908373ffffffffffffffffffffffffffffffffffffffff160217905550808273ffffffffffffffffffffffffffffffffffffffff16600073ffffffffffffffffffffffffffffffffffffffff167fddf252ad1be2c89b69c2b068fc378daa952ba7f163c4a11628f55a4df523b3ef60405160405180910390a46117ac6000838361192e565b5050565b60007f01ffc9a7000000000000000000000000000000000000000000000000000000007bffffffffffffffffffffffffffffffffffffffffffffffffffffffff1916827bffffffffffffffffffffffffffffffffffffffffffffffffffffffff1916149050919050565b611825838383611abb565b600073ffffffffffffffffffffffffffffffffffffffff168373ffffffffffffffffffffffffffffffffffffffff1614156118685761186381611ac0565b6118a7565b8173ffffffffffffffffffffffffffffffffffffffff168373ffffffffffffffffffffffffffffffffffffffff16146118a6576118a58382611b09565b5b5b600073ffffffffffffffffffffffffffffffffffffffff168273ffffffffffffffffffffffffffffffffffffffff1614156118ea576118e581611c76565b611929565b8273ffffffffffffffffffffffffffffffffffffffff168273ffffffffffffffffffffffffffffffffffffffff1614611928576119278282611d47565b5b5b505050565b505050565b60006119548473ffffffffffffffffffffffffffffffffffffffff16611dc6565b15611aae578373ffffffffffffffffffffffffffffffffffffffff1663150b7a0261197d610e8f565b8786866040518563ffffffff1660e01b815260040161199f94939291906130d6565b6020604051808303816000875af19250505080156119db57506040513d601f19601f820116820180604052508101906119d89190613137565b60015b611a5e573d8060008114611a0b576040519150601f19603f3d011682016040523d82523d6000602084013e611a10565b606091505b50600081511415611a56576040517f08c379a0000000000000000000000000000000000000000000000000000000008152600401611a4d90612eaf565b60405180910390fd5b805181602001fd5b63150b7a0260e01b7bffffffffffffffffffffffffffffffffffffffffffffffffffffffff1916817bffffffffffffffffffffffffffffffffffffffffffffffffffffffff191614915050611ab3565b600190505b949350505050565b505050565b6008805490506009600083815260200190815260200160002081905550600881908060018154018082558091505060019003906000526020600020016000909190919091505550565b60006001611b16846108cb565b611b209190612b91565b9050600060076000848152602001908152602001600020549050818114611c05576000600660008673ffffffffffffffffffffffffffffffffffffffff1673ffffffffffffffffffffffffffffffffffffffff168152602001908152602001600020600084815260200190815260200160002054905080600660008773ffffffffffffffffffffffffffffffffffffffff1673ffffffffffffffffffffffffffffffffffffffff168152602001908152602001600020600084815260200190815260200160002081905550816007600083815260200190815260200160002081905550505b6007600084815260200190815260200160002060009055600660008573ffffffffffffffffffffffffffffffffffffffff1673ffffffffffffffffffffffffffffffffffffffff16815260200190815260200160002060008381526020019081526020016000206000905550505050565b60006001600880549050611c8a9190612b91565b9050600060096000848152602001908152602001600020549050600060088381548110611cba57611cb9612906565b5b906000526020600020015490508060088381548110611cdc57611cdb612906565b5b906000526020600020018190555081600960008381526020019081526020016000208190555060096000858152602001908152602001600020600090556008805480611d2b57611d2a613164565b5b6001900381819060005260206000200160009055905550505050565b6000611d52836108cb565b905081600660008573ffffffffffffffffffffffffffffffffffffffff1673ffffffffffffffffffffffffffffffffffffffff168152602001908152602001600020600083815260200190815260200160002081905550806007600084815260200190815260200160002081905550505050565b6000808273ffffffffffffffffffffffffffffffffffffffff163b119050919050565b828054611df590612568565b90600052602060002090601f016020900481019282611e175760008555611e5e565b82601f10611e3057805160ff1916838001178555611e5e565b82800160010185558215611e5e579182015b82811115611e5d578251825591602001919060010190611e42565b5b509050611e6b9190611e6f565b5090565b5b80821115611e88576000816000905550600101611e70565b5090565b6000604051905090565b600080fd5b600080fd5b60007fffffffff0000000000000000000000000000000000000000000000000000000082169050919050565b611ed581611ea0565b8114611ee057600080fd5b50565b600081359050611ef281611ecc565b92915050565b600060208284031215611f0e57611f0d611e96565b5b6000611f1c84828501611ee3565b91505092915050565b60008115159050919050565b611f3a81611f25565b82525050565b6000602082019050611f556000830184611f31565b92915050565b600081519050919050565b600082825260208201905092915050565b60005b83811015611f95578082015181840152602081019050611f7a565b83811115611fa4576000848401525b50505050565b6000601f19601f8301169050919050565b6000611fc682611f5b565b611fd08185611f66565b9350611fe0818560208601611f77565b611fe981611faa565b840191505092915050565b6000602082019050818103600083015261200e8184611fbb565b905092915050565b6000819050919050565b61202981612016565b811461203457600080fd5b50565b60008135905061204681612020565b92915050565b60006020828403121561206257612061611e96565b5b600061207084828501612037565b91505092915050565b600073ffffffffffffffffffffffffffffffffffffffff82169050919050565b60006120a482612079565b9050919050565b6120b481612099565b82525050565b60006020820190506120cf60008301846120ab565b92915050565b6120de81612099565b81146120e957600080fd5b50565b6000813590506120fb816120d5565b92915050565b6000806040838503121561211857612117611e96565b5b6000612126858286016120ec565b925050602061213785828601612037565b9150509250929050565b61214a81612016565b82525050565b60006020820190506121656000830184612141565b92915050565b60008060006060848603121561218457612183611e96565b5b6000612192868287016120ec565b93505060206121a3868287016120ec565b92505060406121b486828701612037565b9150509250925092565b6000602082840312156121d4576121d3611e96565b5b60006121e2848285016120ec565b91505092915050565b6121f481611f25565b81146121ff57600080fd5b50565b600081359050612211816121eb565b92915050565b6000806040838503121561222e5761222d611e96565b5b600061223c858286016120ec565b925050602061224d85828601612202565b9150509250929050565b600080fd5b600080fd5b7f4e487b7100000000000000000000000000000000000000000000000000000000600052604160045260246000fd5b61229982611faa565b810181811067ffffffffffffffff821117156122b8576122b7612261565b5b80604052505050565b60006122cb611e8c565b90506122d78282612290565b919050565b600067ffffffffffffffff8211156122f7576122f6612261565b5b61230082611faa565b9050602081019050919050565b82818337600083830152505050565b600061232f61232a846122dc565b6122c1565b90508281526020810184848401111561234b5761234a61225c565b5b61235684828561230d565b509392505050565b600082601f83011261237357612372612257565b5b813561238384826020860161231c565b91505092915050565b600080600080608085870312156123a6576123a5611e96565b5b60006123b4878288016120ec565b94505060206123c5878288016120ec565b93505060406123d687828801612037565b925050606085013567ffffffffffffffff8111156123f7576123f6611e9b565b5b6124038782880161235e565b91505092959194509250565b600067ffffffffffffffff82111561242a57612429612261565b5b61243382611faa565b9050602081019050919050565b600061245361244e8461240f565b6122c1565b90508281526020810184848401111561246f5761246e61225c565b5b61247a84828561230d565b509392505050565b600082601f83011261249757612496612257565b5b81356124a7848260208601612440565b91505092915050565b6000602082840312156124c6576124c5611e96565b5b600082013567ffffffffffffffff8111156124e4576124e3611e9b565b5b6124f084828501612482565b91505092915050565b600080604083850312156125105761250f611e96565b5b600061251e858286016120ec565b925050602061252f858286016120ec565b9150509250929050565b7f4e487b7100000000000000000000000000000000000000000000000000000000600052602260045260246000fd5b6000600282049050600182168061258057607f821691505b6020821081141561259457612593612539565b5b50919050565b7f4552433732313a20617070726f76656420717565727920666f72206e6f6e657860008201527f697374656e7420746f6b656e0000000000000000000000000000000000000000602082015250565b60006125f6602c83611f66565b91506126018261259a565b604082019050919050565b60006020820190508181036000830152612625816125e9565b9050919050565b7f4552433732313a20617070726f76616c20746f2063757272656e74206f776e6560008201527f7200000000000000000000000000000000000000000000000000000000000000602082015250565b6000612688602183611f66565b91506126938261262c565b604082019050919050565b600060208201905081810360008301526126b78161267b565b9050919050565b7f4552433732313a20617070726f76652063616c6c6572206973206e6f74206f7760008201527f6e6572206e6f7220617070726f76656420666f7220616c6c0000000000000000602082015250565b600061271a603883611f66565b9150612725826126be565b604082019050919050565b600060208201905081810360008301526127498161270d565b9050919050565b7f4552433732313a207472616e736665722063616c6c6572206973206e6f74206f60008201527f776e6572206e6f7220617070726f766564000000000000000000000000000000602082015250565b60006127ac603183611f66565b91506127b782612750565b604082019050919050565b600060208201905081810360008301526127db8161279f565b9050919050565b7f455243373231456e756d657261626c653a206f776e657220696e646578206f7560008201527f74206f6620626f756e6473000000000000000000000000000000000000000000602082015250565b600061283e602b83611f66565b9150612849826127e2565b604082019050919050565b6000602082019050818103600083015261286d81612831565b9050919050565b7f455243373231456e756d657261626c653a20676c6f62616c20696e646578206f60008201527f7574206f6620626f756e64730000000000000000000000000000000000000000602082015250565b60006128d0602c83611f66565b91506128db82612874565b604082019050919050565b600060208201905081810360008301526128ff816128c3565b9050919050565b7f4e487b7100000000000000000000000000000000000000000000000000000000600052603260045260246000fd5b7f4552433732313a206f776e657220717565727920666f72206e6f6e657869737460008201527f656e7420746f6b656e0000000000000000000000000000000000000000000000602082015250565b6000612991602983611f66565b915061299c82612935565b604082019050919050565b600060208201905081810360008301526129c081612984565b9050919050565b7f4552433732313a2062616c616e636520717565727920666f7220746865207a6560008201527f726f206164647265737300000000000000000000000000000000000000000000602082015250565b6000612a23602a83611f66565b9150612a2e826129c7565b604082019050919050565b60006020820190508181036000830152612a5281612a16565b9050919050565b7f4552433732314d657461646174613a2055524920717565727920666f72206e6f60008201527f6e6578697374656e7420746f6b656e0000000000000000000000000000000000602082015250565b6000612ab5602f83611f66565b9150612ac082612a59565b604082019050919050565b60006020820190508181036000830152612ae481612aa8565b9050919050565b600081905092915050565b6000612b0182611f5b565b612b0b8185612aeb565b9350612b1b818560208601611f77565b80840191505092915050565b6000612b338285612af6565b9150612b3f8284612af6565b91508190509392505050565b6000612b578284612af6565b915081905092915050565b7f4e487b7100000000000000000000000000000000000000000000000000000000600052601160045260246000fd5b6000612b9c82612016565b9150612ba783612016565b925082821015612bba57612bb9612b62565b5b828203905092915050565b7f4552433732313a206f70657261746f7220717565727920666f72206e6f6e657860008201527f697374656e7420746f6b656e0000000000000000000000000000000000000000602082015250565b6000612c21602c83611f66565b9150612c2c82612bc5565b604082019050919050565b60006020820190508181036000830152612c5081612c14565b9050919050565b7f4552433732313a207472616e736665722066726f6d20696e636f72726563742060008201527f6f776e6572000000000000000000000000000000000000000000000000000000602082015250565b6000612cb3602583611f66565b9150612cbe82612c57565b604082019050919050565b60006020820190508181036000830152612ce281612ca6565b9050919050565b7f4552433732313a207472616e7366657220746f20746865207a65726f2061646460008201527f7265737300000000000000000000000000000000000000000000000000000000602082015250565b6000612d45602483611f66565b9150612d5082612ce9565b604082019050919050565b60006020820190508181036000830152612d7481612d38565b9050919050565b6000612d8682612016565b9150612d9183612016565b9250827fffffffffffffffffffffffffffffffffffffffffffffffffffffffffffffffff03821115612dc657612dc5612b62565b5b828201905092915050565b7f4552433732313a20617070726f766520746f2063616c6c657200000000000000600082015250565b6000612e07601983611f66565b9150612e1282612dd1565b602082019050919050565b60006020820190508181036000830152612e3681612dfa565b9050919050565b7f4552433732313a207472616e7366657220746f206e6f6e20455243373231526560008201527f63656976657220696d706c656d656e7465720000000000000000000000000000602082015250565b6000612e99603283611f66565b9150612ea482612e3d565b604082019050919050565b60006020820190508181036000830152612ec881612e8c565b9050919050565b6000612eda82612016565b91507fffffffffffffffffffffffffffffffffffffffffffffffffffffffffffffffff821415612f0d57612f0c612b62565b5b600182019050919050565b7f4e487b7100000000000000000000000000000000000000000000000000000000600052601260045260246000fd5b6000612f5282612016565b9150612f5d83612016565b925082612f6d57612f6c612f18565b5b828204905092915050565b6000612f8382612016565b9150612f8e83612016565b925082612f9e57612f9d612f18565b5b828206905092915050565b7f4552433732313a206d696e7420746f20746865207a65726f2061646472657373600082015250565b6000612fdf602083611f66565b9150612fea82612fa9565b602082019050919050565b6000602082019050818103600083015261300e81612fd2565b9050919050565b7f4552433732313a20746f6b656e20616c7265616479206d696e74656400000000600082015250565b600061304b601c83611f66565b915061305682613015565b602082019050919050565b6000602082019050818103600083015261307a8161303e565b9050919050565b600081519050919050565b600082825260208201905092915050565b60006130a882613081565b6130b2818561308c565b93506130c2818560208601611f77565b6130cb81611faa565b840191505092915050565b60006080820190506130eb60008301876120ab565b6130f860208301866120ab565b6131056040830185612141565b8181036060830152613117818461309d565b905095945050505050565b60008151905061313181611ecc565b92915050565b60006020828403121561314d5761314c611e96565b5b600061315b84828501613122565b91505092915050565b7f4e487b7100000000000000000000000000000000000000000000000000000000600052603160045260246000fdfea26469706673582212203734f6263a255d20562d799d5a715c63b14c24592b4f9baf35f28981a02b3a8e64736f6c634300080c0033",
  "immutableReferences": {},
  "source": "pragma solidity ^0.8.0;\r\n\r\nimport \"@openzeppelin/contracts/token/ERC721/extensions/ERC721Enumerable.sol\";\r\nimport \"@openzeppelin/contracts/token/ERC721/ERC721.sol\";\r\n\r\n\r\ncontract Color is ERC721Enumerable {\r\n\r\n    string[] public colors;\r\n\r\n    mapping(string => bool) _colorExists;\r\n\r\n    constructor() ERC721(\"Color\", \"COLOR\") public{\r\n\r\n    }\r\n\r\n    function mint(string memory _color) public {\r\n        //require unique color\r\n        //color - add it\r\n        //call the mint functon\r\n        //color - track it\r\n        require(!_colorExists[_color]);\r\n        colors.push(_color);\r\n         uint _id  = colors.length -1;\r\n        _mint(msg.sender, _id);\r\n        _colorExists[_color] = true;\r\n\r\n    }\r\n}",
  "sourcePath": "C:\\Users\\crist\\work\\nft\\src\\contracts\\Color.sol",
  "compiler": {
    "name": "solc",
    "version": "0.8.12+commit.f00d7308.Emscripten.clang"
  },
  "schemaVersion": "3.4.5",
  "updatedAt": "2022-05-06T13:17:31.530Z",
  "networkType": "ethereum",
  "devdoc": {
    "kind": "dev",
    "methods": {
      "approve(address,uint256)": {
        "details": "See {IERC721-approve}."
      },
      "balanceOf(address)": {
        "details": "See {IERC721-balanceOf}."
      },
      "getApproved(uint256)": {
        "details": "See {IERC721-getApproved}."
      },
      "isApprovedForAll(address,address)": {
        "details": "See {IERC721-isApprovedForAll}."
      },
      "name()": {
        "details": "See {IERC721Metadata-name}."
      },
      "ownerOf(uint256)": {
        "details": "See {IERC721-ownerOf}."
      },
      "safeTransferFrom(address,address,uint256)": {
        "details": "See {IERC721-safeTransferFrom}."
      },
      "safeTransferFrom(address,address,uint256,bytes)": {
        "details": "See {IERC721-safeTransferFrom}."
      },
      "setApprovalForAll(address,bool)": {
        "details": "See {IERC721-setApprovalForAll}."
      },
      "supportsInterface(bytes4)": {
        "details": "See {IERC165-supportsInterface}."
      },
      "symbol()": {
        "details": "See {IERC721Metadata-symbol}."
      },
      "tokenByIndex(uint256)": {
        "details": "See {IERC721Enumerable-tokenByIndex}."
      },
      "tokenOfOwnerByIndex(address,uint256)": {
        "details": "See {IERC721Enumerable-tokenOfOwnerByIndex}."
      },
      "tokenURI(uint256)": {
        "details": "See {IERC721Metadata-tokenURI}."
      },
      "totalSupply()": {
        "details": "See {IERC721Enumerable-totalSupply}."
      },
      "transferFrom(address,address,uint256)": {
        "details": "See {IERC721-transferFrom}."
      }
    },
    "version": 1
  },
  "userdoc": {
    "kind": "user",
    "methods": {},
    "version": 1
  }
}