{
  "contractName": "EduChain",
  "abi": [
    {
      "inputs": [
        {
          "internalType": "string",
          "name": "_version",
          "type": "string"
        }
      ],
      "stateMutability": "nonpayable",
      "type": "constructor"
    },
    {
      "anonymous": false,
      "inputs": [
        {
          "indexed": false,
          "internalType": "uint256",
          "name": "id",
          "type": "uint256"
        },
        {
          "indexed": false,
          "internalType": "address",
          "name": "teacher",
          "type": "address"
        },
        {
          "indexed": false,
          "internalType": "string",
          "name": "subject",
          "type": "string"
        }
      ],
      "name": "SchoolRecordCreated",
      "type": "event"
    },
    {
      "anonymous": false,
      "inputs": [
        {
          "indexed": false,
          "internalType": "uint256",
          "name": "id",
          "type": "uint256"
        },
        {
          "indexed": false,
          "internalType": "address",
          "name": "teacher",
          "type": "address"
        },
        {
          "indexed": false,
          "internalType": "string",
          "name": "subject",
          "type": "string"
        },
        {
          "indexed": false,
          "internalType": "string",
          "name": "resourceURL",
          "type": "string"
        }
      ],
      "name": "SchoolRecordGraded",
      "type": "event"
    },
    {
      "anonymous": false,
      "inputs": [
        {
          "indexed": false,
          "internalType": "address",
          "name": "student",
          "type": "address"
        },
        {
          "indexed": false,
          "internalType": "string",
          "name": "subject",
          "type": "string"
        },
        {
          "indexed": false,
          "internalType": "string",
          "name": "resourceURL",
          "type": "string"
        }
      ],
      "name": "SchoolRecordSubmited",
      "type": "event"
    },
    {
      "anonymous": false,
      "inputs": [
        {
          "indexed": false,
          "internalType": "address",
          "name": "student",
          "type": "address"
        },
        {
          "indexed": false,
          "internalType": "string",
          "name": "subject",
          "type": "string"
        }
      ],
      "name": "SubmissionRemoved",
      "type": "event"
    },
    {
      "anonymous": false,
      "inputs": [
        {
          "indexed": false,
          "internalType": "address",
          "name": "teacher",
          "type": "address"
        }
      ],
      "name": "TeacherRegistered",
      "type": "event"
    },
    {
      "inputs": [
        {
          "internalType": "uint256",
          "name": "",
          "type": "uint256"
        }
      ],
      "name": "courses",
      "outputs": [
        {
          "internalType": "string",
          "name": "",
          "type": "string"
        }
      ],
      "stateMutability": "view",
      "type": "function",
      "constant": true
    },
    {
      "inputs": [
        {
          "internalType": "uint256",
          "name": "",
          "type": "uint256"
        }
      ],
      "name": "teachers",
      "outputs": [
        {
          "internalType": "address",
          "name": "",
          "type": "address"
        }
      ],
      "stateMutability": "view",
      "type": "function",
      "constant": true
    },
    {
      "inputs": [],
      "name": "version",
      "outputs": [
        {
          "internalType": "string",
          "name": "",
          "type": "string"
        }
      ],
      "stateMutability": "view",
      "type": "function",
      "constant": true
    },
    {
      "inputs": [],
      "name": "getAdmin",
      "outputs": [
        {
          "internalType": "address",
          "name": "",
          "type": "address"
        }
      ],
      "stateMutability": "view",
      "type": "function",
      "constant": true
    },
    {
      "inputs": [
        {
          "internalType": "address",
          "name": "_teacher",
          "type": "address"
        }
      ],
      "name": "addTeacher",
      "outputs": [],
      "stateMutability": "nonpayable",
      "type": "function"
    },
    {
      "inputs": [
        {
          "internalType": "string",
          "name": "_subject",
          "type": "string"
        },
        {
          "internalType": "address",
          "name": "_student",
          "type": "address"
        },
        {
          "internalType": "bool",
          "name": "_mandatorySubmit",
          "type": "bool"
        },
        {
          "internalType": "uint256",
          "name": "_credits",
          "type": "uint256"
        },
        {
          "internalType": "uint256",
          "name": "deadLine",
          "type": "uint256"
        }
      ],
      "name": "addSchoolRecord",
      "outputs": [
        {
          "internalType": "uint256",
          "name": "",
          "type": "uint256"
        }
      ],
      "stateMutability": "nonpayable",
      "type": "function"
    },
    {
      "inputs": [
        {
          "internalType": "address",
          "name": "_student",
          "type": "address"
        },
        {
          "internalType": "string",
          "name": "_subject",
          "type": "string"
        },
        {
          "internalType": "string",
          "name": "_resourceURL",
          "type": "string"
        }
      ],
      "name": "submitSchoolRecord",
      "outputs": [
        {
          "internalType": "uint256",
          "name": "",
          "type": "uint256"
        }
      ],
      "stateMutability": "nonpayable",
      "type": "function"
    },
    {
      "inputs": [
        {
          "internalType": "address",
          "name": "_student",
          "type": "address"
        },
        {
          "internalType": "string",
          "name": "_subject",
          "type": "string"
        }
      ],
      "name": "removeSubmission",
      "outputs": [
        {
          "internalType": "uint256",
          "name": "",
          "type": "uint256"
        }
      ],
      "stateMutability": "nonpayable",
      "type": "function"
    },
    {
      "inputs": [
        {
          "internalType": "string",
          "name": "_subject",
          "type": "string"
        },
        {
          "internalType": "address",
          "name": "_student",
          "type": "address"
        },
        {
          "internalType": "uint256",
          "name": "_grade",
          "type": "uint256"
        }
      ],
      "name": "gradeSchoolRecord",
      "outputs": [],
      "stateMutability": "nonpayable",
      "type": "function"
    },
    {
      "inputs": [
        {
          "internalType": "string",
          "name": "_subject",
          "type": "string"
        },
        {
          "internalType": "address",
          "name": "_student",
          "type": "address"
        }
      ],
      "name": "getRecordOfStudent",
      "outputs": [
        {
          "components": [
            {
              "internalType": "string",
              "name": "subject",
              "type": "string"
            },
            {
              "internalType": "address",
              "name": "professor",
              "type": "address"
            },
            {
              "internalType": "address",
              "name": "student",
              "type": "address"
            },
            {
              "internalType": "uint256",
              "name": "grade",
              "type": "uint256"
            },
            {
              "internalType": "uint256",
              "name": "credits",
              "type": "uint256"
            },
            {
              "internalType": "bool",
              "name": "mandatorySubmit",
              "type": "bool"
            },
            {
              "internalType": "bool",
              "name": "graded",
              "type": "bool"
            },
            {
              "internalType": "bool",
              "name": "submitted",
              "type": "bool"
            },
            {
              "internalType": "bool",
              "name": "late",
              "type": "bool"
            },
            {
              "internalType": "string",
              "name": "resourceIPFS",
              "type": "string"
            },
            {
              "internalType": "uint256",
              "name": "timeOpened",
              "type": "uint256"
            },
            {
              "internalType": "uint256",
              "name": "submitDeadline",
              "type": "uint256"
            },
            {
              "internalType": "uint256",
              "name": "lastUpdated",
              "type": "uint256"
            },
            {
              "internalType": "bool",
              "name": "exists",
              "type": "bool"
            }
          ],
          "internalType": "struct EduChain.SchoolRecord",
          "name": "",
          "type": "tuple"
        }
      ],
      "stateMutability": "view",
      "type": "function",
      "constant": true
    },
    {
      "inputs": [
        {
          "internalType": "address",
          "name": "_student",
          "type": "address"
        }
      ],
      "name": "getAllRecordsOfStudent",
      "outputs": [
        {
          "components": [
            {
              "internalType": "string",
              "name": "subject",
              "type": "string"
            },
            {
              "internalType": "address",
              "name": "professor",
              "type": "address"
            },
            {
              "internalType": "address",
              "name": "student",
              "type": "address"
            },
            {
              "internalType": "uint256",
              "name": "grade",
              "type": "uint256"
            },
            {
              "internalType": "uint256",
              "name": "credits",
              "type": "uint256"
            },
            {
              "internalType": "bool",
              "name": "mandatorySubmit",
              "type": "bool"
            },
            {
              "internalType": "bool",
              "name": "graded",
              "type": "bool"
            },
            {
              "internalType": "bool",
              "name": "submitted",
              "type": "bool"
            },
            {
              "internalType": "bool",
              "name": "late",
              "type": "bool"
            },
            {
              "internalType": "string",
              "name": "resourceIPFS",
              "type": "string"
            },
            {
              "internalType": "uint256",
              "name": "timeOpened",
              "type": "uint256"
            },
            {
              "internalType": "uint256",
              "name": "submitDeadline",
              "type": "uint256"
            },
            {
              "internalType": "uint256",
              "name": "lastUpdated",
              "type": "uint256"
            },
            {
              "internalType": "bool",
              "name": "exists",
              "type": "bool"
            }
          ],
          "internalType": "struct EduChain.SchoolRecord[]",
          "name": "",
          "type": "tuple[]"
        }
      ],
      "stateMutability": "view",
      "type": "function",
      "constant": true
    },
    {
      "inputs": [
        {
          "internalType": "address",
          "name": "_teacher",
          "type": "address"
        }
      ],
      "name": "getAllRecordsOfTeacher",
      "outputs": [
        {
          "components": [
            {
              "internalType": "string",
              "name": "subject",
              "type": "string"
            },
            {
              "internalType": "address",
              "name": "professor",
              "type": "address"
            },
            {
              "internalType": "address",
              "name": "student",
              "type": "address"
            },
            {
              "internalType": "uint256",
              "name": "grade",
              "type": "uint256"
            },
            {
              "internalType": "uint256",
              "name": "credits",
              "type": "uint256"
            },
            {
              "internalType": "bool",
              "name": "mandatorySubmit",
              "type": "bool"
            },
            {
              "internalType": "bool",
              "name": "graded",
              "type": "bool"
            },
            {
              "internalType": "bool",
              "name": "submitted",
              "type": "bool"
            },
            {
              "internalType": "bool",
              "name": "late",
              "type": "bool"
            },
            {
              "internalType": "string",
              "name": "resourceIPFS",
              "type": "string"
            },
            {
              "internalType": "uint256",
              "name": "timeOpened",
              "type": "uint256"
            },
            {
              "internalType": "uint256",
              "name": "submitDeadline",
              "type": "uint256"
            },
            {
              "internalType": "uint256",
              "name": "lastUpdated",
              "type": "uint256"
            },
            {
              "internalType": "bool",
              "name": "exists",
              "type": "bool"
            }
          ],
          "internalType": "struct EduChain.SchoolRecord[]",
          "name": "",
          "type": "tuple[]"
        }
      ],
      "stateMutability": "view",
      "type": "function",
      "constant": true
    },
    {
      "inputs": [],
      "name": "isTeacher",
      "outputs": [
        {
          "internalType": "bool",
          "name": "",
          "type": "bool"
        }
      ],
      "stateMutability": "view",
      "type": "function",
      "constant": true
    },
    {
      "inputs": [
        {
          "internalType": "string",
          "name": "_color",
          "type": "string"
        }
      ],
      "name": "addColor",
      "outputs": [],
      "stateMutability": "nonpayable",
      "type": "function"
    }
  ],
  "bytecode": "0x60806040523480156200001157600080fd5b50604051620030da380380620030da8339818101604052810190620000379190620002ed565b33600460006101000a81548173ffffffffffffffffffffffffffffffffffffffff021916908373ffffffffffffffffffffffffffffffffffffffff160217905550806003908051906020019062000090929190620000a0565b50600060058190555050620003a3565b828054620000ae906200036d565b90600052602060002090601f016020900481019282620000d257600085556200011e565b82601f10620000ed57805160ff19168380011785556200011e565b828001600101855582156200011e579182015b828111156200011d57825182559160200191906001019062000100565b5b5090506200012d919062000131565b5090565b5b808211156200014c57600081600090555060010162000132565b5090565b6000604051905090565b600080fd5b600080fd5b600080fd5b600080fd5b6000601f19601f8301169050919050565b7f4e487b7100000000000000000000000000000000000000000000000000000000600052604160045260246000fd5b620001b9826200016e565b810181811067ffffffffffffffff82111715620001db57620001da6200017f565b5b80604052505050565b6000620001f062000150565b9050620001fe8282620001ae565b919050565b600067ffffffffffffffff8211156200022157620002206200017f565b5b6200022c826200016e565b9050602081019050919050565b60005b83811015620002595780820151818401526020810190506200023c565b8381111562000269576000848401525b50505050565b600062000286620002808462000203565b620001e4565b905082815260208101848484011115620002a557620002a462000169565b5b620002b284828562000239565b509392505050565b600082601f830112620002d257620002d162000164565b5b8151620002e48482602086016200026f565b91505092915050565b6000602082840312156200030657620003056200015a565b5b600082015167ffffffffffffffff8111156200032757620003266200015f565b5b6200033584828501620002ba565b91505092915050565b7f4e487b7100000000000000000000000000000000000000000000000000000000600052602260045260246000fd5b600060028204905060018216806200038657607f821691505b602082108114156200039d576200039c6200033e565b5b50919050565b612d2780620003b36000396000f3fe608060405234801561001057600080fd5b50600436106100ea5760003560e01c80639348a72d1161008c578063ca782ab411610066578063ca782ab41461025d578063f23b667e1461028d578063f4934cdb146102bd578063fefa98c6146102ed576100ea565b80639348a72d146101f357806396f979d21461020f578063c64a4bad1461023f576100ea565b806354fd4d50116100c857806354fd4d50146101575780636bb6f9ac146101755780636e9960c3146101a55780638de08f3f146101c3576100ea565b806315341f2b146100ef57806334ac0b401461010b5780633bc6e3091461013b575b600080fd5b61010960048036038101906101049190611f12565b61031d565b005b61012560048036038101906101209190611f91565b6103ad565b6040516101329190611fff565b60405180910390f35b61015560048036038101906101509190612046565b6103ec565b005b61015f610591565b60405161016c91906120fb565b60405180910390f35b61018f600480360381019061018a9190612046565b61061f565b60405161019c9190612397565b60405180910390f35b6101ad610a46565b6040516101ba9190611fff565b60405180910390f35b6101dd60048036038101906101d891906123b9565b610a70565b6040516101ea9190612453565b60405180910390f35b61020d6004803603810190610208919061246e565b610c42565b005b61022960048036038101906102249190611f91565b610e83565b60405161023691906120fb565b60405180910390f35b610247610f2f565b60405161025491906124ec565b60405180910390f35b61027760048036038101906102729190612507565b610f83565b6040516102849190612698565b60405180910390f35b6102a760048036038101906102a291906126e6565b6112a2565b6040516102b49190612453565b60405180910390f35b6102d760048036038101906102d2919061277d565b611695565b6040516102e49190612453565b60405180910390f35b61030760048036038101906103029190612046565b611849565b6040516103149190612397565b60405180910390f35b600660009054906101000a900473ffffffffffffffffffffffffffffffffffffffff1673ffffffffffffffffffffffffffffffffffffffff1663d85d3d27826040518263ffffffff1660e01b815260040161037891906120fb565b600060405180830381600087803b15801561039257600080fd5b505af11580156103a6573d6000803e3d6000fd5b5050505050565b600081815481106103bd57600080fd5b906000526020600020016000915054906101000a900473ffffffffffffffffffffffffffffffffffffffff1681565b600460009054906101000a900473ffffffffffffffffffffffffffffffffffffffff1673ffffffffffffffffffffffffffffffffffffffff163373ffffffffffffffffffffffffffffffffffffffff161480156104935750600260008273ffffffffffffffffffffffffffffffffffffffff1673ffffffffffffffffffffffffffffffffffffffff16815260200190815260200160002060009054906101000a900460ff16155b61049c57600080fd5b6000819080600181540180825580915050600190039060005260206000200160009091909190916101000a81548173ffffffffffffffffffffffffffffffffffffffff021916908373ffffffffffffffffffffffffffffffffffffffff1602179055506001600260008373ffffffffffffffffffffffffffffffffffffffff1673ffffffffffffffffffffffffffffffffffffffff16815260200190815260200160002060006101000a81548160ff0219169083151502179055507fde256622a68c110b10d2bfa4a983d8c309a49b3f1c1e5af8c8dc50209835cc61816040516105869190611fff565b60405180910390a150565b6003805461059e90612808565b80601f01602080910402602001604051908101604052809291908181526020018280546105ca90612808565b80156106175780601f106105ec57610100808354040283529160200191610617565b820191906000526020600020905b8154815290600101906020018083116105fa57829003601f168201915b505050505081565b60606000600860008473ffffffffffffffffffffffffffffffffffffffff1673ffffffffffffffffffffffffffffffffffffffff1681526020019081526020016000208054905067ffffffffffffffff81111561067f5761067e611de7565b5b6040519080825280602002602001820160405280156106b857816020015b6106a5611c70565b81526020019060019003908161069d5790505b50905060005b600860008573ffffffffffffffffffffffffffffffffffffffff1673ffffffffffffffffffffffffffffffffffffffff16815260200190815260200160002080549050811015610a3c5760076000600860008773ffffffffffffffffffffffffffffffffffffffff1673ffffffffffffffffffffffffffffffffffffffff168152602001908152602001600020838154811061075d5761075c61283a565b5b90600052602060002001548152602001908152602001600020604051806101c001604052908160008201805461079290612808565b80601f01602080910402602001604051908101604052809291908181526020018280546107be90612808565b801561080b5780601f106107e05761010080835404028352916020019161080b565b820191906000526020600020905b8154815290600101906020018083116107ee57829003601f168201915b505050505081526020016001820160009054906101000a900473ffffffffffffffffffffffffffffffffffffffff1673ffffffffffffffffffffffffffffffffffffffff1673ffffffffffffffffffffffffffffffffffffffff1681526020016002820160009054906101000a900473ffffffffffffffffffffffffffffffffffffffff1673ffffffffffffffffffffffffffffffffffffffff1673ffffffffffffffffffffffffffffffffffffffff16815260200160038201548152602001600482015481526020016005820160009054906101000a900460ff161515151581526020016005820160019054906101000a900460ff161515151581526020016005820160029054906101000a900460ff161515151581526020016005820160039054906101000a900460ff1615151515815260200160068201805461095090612808565b80601f016020809104026020016040519081016040528092919081815260200182805461097c90612808565b80156109c95780601f1061099e576101008083540402835291602001916109c9565b820191906000526020600020905b8154815290600101906020018083116109ac57829003601f168201915b50505050508152602001600782015481526020016008820154815260200160098201548152602001600a820160009054906101000a900460ff161515151581525050828281518110610a1e57610a1d61283a565b5b60200260200101819052508080610a3490612898565b9150506106be565b5080915050919050565b6000600460009054906101000a900473ffffffffffffffffffffffffffffffffffffffff16905090565b60008060076000600986604051610a87919061291d565b908152602001604051809103902060008873ffffffffffffffffffffffffffffffffffffffff1673ffffffffffffffffffffffffffffffffffffffff168152602001908152602001600020548152602001908152602001600020905080600a0160009054906101000a900460ff16610b34576040517f08c379a0000000000000000000000000000000000000000000000000000000008152600401610b2b90612980565b60405180910390fd5b3373ffffffffffffffffffffffffffffffffffffffff168160020160009054906101000a900473ffffffffffffffffffffffffffffffffffffffff1673ffffffffffffffffffffffffffffffffffffffff1614610b9057600080fd5b82816006019080519060200190610ba8929190611d15565b5060018160050160026101000a81548160ff0219169083151502179055504281600801541115610bf05760018160050160036101000a81548160ff0219169083151502179055505b4281600901819055507f2d60c350991fe20f0b1d9aa7aaaf605914856627bd233b4da9e362c9af5d2c7e338260000185604051610c2f93929190612a35565b60405180910390a1429150509392505050565b6000600984604051610c54919061291d565b908152602001604051809103902060008473ffffffffffffffffffffffffffffffffffffffff1673ffffffffffffffffffffffffffffffffffffffff168152602001908152602001600020549050600060076000838152602001908152602001600020905080600a0160009054906101000a900460ff16610d0a576040517f08c379a0000000000000000000000000000000000000000000000000000000008152600401610d0190612980565b60405180910390fd5b8060050160009054906101000a900460ff168015610d3957506000816006018054610d3490612808565b905014155b610d78576040517f08c379a0000000000000000000000000000000000000000000000000000000008152600401610d6f90612aec565b60405180910390fd5b3373ffffffffffffffffffffffffffffffffffffffff168160010160009054906101000a900473ffffffffffffffffffffffffffffffffffffffff1673ffffffffffffffffffffffffffffffffffffffff1614610e0a576040517f08c379a0000000000000000000000000000000000000000000000000000000008152600401610e0190612b7e565b60405180910390fd5b82816003018190555060018160050160016101000a81548160ff0219169083151502179055504281600901819055507f61a3763dbeb9e555175f8ed22c24db4be955e76efe5606ee2a8c06df1594ad0082338360000184600601604051610e749493929190612b9e565b60405180910390a15050505050565b60018181548110610e9357600080fd5b906000526020600020016000915090508054610eae90612808565b80601f0160208091040260200160405190810160405280929190818152602001828054610eda90612808565b8015610f275780601f10610efc57610100808354040283529160200191610f27565b820191906000526020600020905b815481529060010190602001808311610f0a57829003601f168201915b505050505081565b6000600260003373ffffffffffffffffffffffffffffffffffffffff1673ffffffffffffffffffffffffffffffffffffffff16815260200190815260200160002060009054906101000a900460ff16905090565b610f8b611c70565b6000600984604051610f9d919061291d565b908152602001604051809103902060008473ffffffffffffffffffffffffffffffffffffffff1673ffffffffffffffffffffffffffffffffffffffff168152602001908152602001600020549050600060076000838152602001908152602001600020905080604051806101c001604052908160008201805461101f90612808565b80601f016020809104026020016040519081016040528092919081815260200182805461104b90612808565b80156110985780601f1061106d57610100808354040283529160200191611098565b820191906000526020600020905b81548152906001019060200180831161107b57829003601f168201915b505050505081526020016001820160009054906101000a900473ffffffffffffffffffffffffffffffffffffffff1673ffffffffffffffffffffffffffffffffffffffff1673ffffffffffffffffffffffffffffffffffffffff1681526020016002820160009054906101000a900473ffffffffffffffffffffffffffffffffffffffff1673ffffffffffffffffffffffffffffffffffffffff1673ffffffffffffffffffffffffffffffffffffffff16815260200160038201548152602001600482015481526020016005820160009054906101000a900460ff161515151581526020016005820160019054906101000a900460ff161515151581526020016005820160029054906101000a900460ff161515151581526020016005820160039054906101000a900460ff161515151581526020016006820180546111dd90612808565b80601f016020809104026020016040519081016040528092919081815260200182805461120990612808565b80156112565780601f1061122b57610100808354040283529160200191611256565b820191906000526020600020905b81548152906001019060200180831161123957829003601f168201915b50505050508152602001600782015481526020016008820154815260200160098201548152602001600a820160009054906101000a900460ff1615151515815250509250505092915050565b6000600260003373ffffffffffffffffffffffffffffffffffffffff1673ffffffffffffffffffffffffffffffffffffffff16815260200190815260200160002060009054906101000a900460ff16611330576040517f08c379a000000000000000000000000000000000000000000000000000000000815260040161132790612c63565b60405180910390fd5b6005600081548092919061134390612898565b91905055506000600760006005548152602001908152602001600020905086816000019080519060200190611379929190611d15565b50338160010160006101000a81548173ffffffffffffffffffffffffffffffffffffffff021916908373ffffffffffffffffffffffffffffffffffffffff160217905550858160020160006101000a81548173ffffffffffffffffffffffffffffffffffffffff021916908373ffffffffffffffffffffffffffffffffffffffff160217905550838160040181905550600181600a0160006101000a81548160ff02191690831515021790555060008160050160016101000a81548160ff021916908315150217905550848160050160006101000a81548160ff02191690831515021790555060001515851515141561148e5760018160050160026101000a81548160ff0219169083151502179055506114ac565b60008160050160026101000a81548160ff0219169083151502179055505b60008160050160036101000a81548160ff021916908315150217905550428160070181905550828160080181905550600860008773ffffffffffffffffffffffffffffffffffffffff1673ffffffffffffffffffffffffffffffffffffffff1681526020019081526020016000206005549080600181540180825580915050600190039060005260206000200160009091909190915055600554600988604051611556919061291d565b908152602001604051809103902060008873ffffffffffffffffffffffffffffffffffffffff1673ffffffffffffffffffffffffffffffffffffffff16815260200190815260200160002081905550600a60003373ffffffffffffffffffffffffffffffffffffffff1673ffffffffffffffffffffffffffffffffffffffff1681526020019081526020016000206005549080600181540180825580915050600190039060005260206000200160009091909190915055600187908060018154018082558091505060019003906000526020600020016000909190919091509080519060200190611648929190611d15565b507f6918b6b15573ba25af7f4e9246993d534babbed206fbc416ffaebe89e1e8f48a600554338960405161167e93929190612c83565b60405180910390a160055491505095945050505050565b600080600760006009856040516116ac919061291d565b908152602001604051809103902060008773ffffffffffffffffffffffffffffffffffffffff1673ffffffffffffffffffffffffffffffffffffffff168152602001908152602001600020548152602001908152602001600020905080600a0160009054906101000a900460ff16611759576040517f08c379a000000000000000000000000000000000000000000000000000000000815260040161175090612980565b60405180910390fd5b3373ffffffffffffffffffffffffffffffffffffffff168160020160009054906101000a900473ffffffffffffffffffffffffffffffffffffffff1673ffffffffffffffffffffffffffffffffffffffff16146117b557600080fd5b604051806020016040528060008152508160060190805190602001906117dc929190611d15565b5060008160050160026101000a81548160ff0219169083151502179055504281600901819055507f414059fc16373d7ed8ad371692f4b69353c9904a1f1bb66d310bd23880917e0c3382600001604051611837929190612cc1565b60405180910390a14291505092915050565b60606000600a60008473ffffffffffffffffffffffffffffffffffffffff1673ffffffffffffffffffffffffffffffffffffffff1681526020019081526020016000208054905067ffffffffffffffff8111156118a9576118a8611de7565b5b6040519080825280602002602001820160405280156118e257816020015b6118cf611c70565b8152602001906001900390816118c75790505b50905060005b600a60008573ffffffffffffffffffffffffffffffffffffffff1673ffffffffffffffffffffffffffffffffffffffff16815260200190815260200160002080549050811015611c665760076000600a60008773ffffffffffffffffffffffffffffffffffffffff1673ffffffffffffffffffffffffffffffffffffffff16815260200190815260200160002083815481106119875761198661283a565b5b90600052602060002001548152602001908152602001600020604051806101c00160405290816000820180546119bc90612808565b80601f01602080910402602001604051908101604052809291908181526020018280546119e890612808565b8015611a355780601f10611a0a57610100808354040283529160200191611a35565b820191906000526020600020905b815481529060010190602001808311611a1857829003601f168201915b505050505081526020016001820160009054906101000a900473ffffffffffffffffffffffffffffffffffffffff1673ffffffffffffffffffffffffffffffffffffffff1673ffffffffffffffffffffffffffffffffffffffff1681526020016002820160009054906101000a900473ffffffffffffffffffffffffffffffffffffffff1673ffffffffffffffffffffffffffffffffffffffff1673ffffffffffffffffffffffffffffffffffffffff16815260200160038201548152602001600482015481526020016005820160009054906101000a900460ff161515151581526020016005820160019054906101000a900460ff161515151581526020016005820160029054906101000a900460ff161515151581526020016005820160039054906101000a900460ff16151515158152602001600682018054611b7a90612808565b80601f0160208091040260200160405190810160405280929190818152602001828054611ba690612808565b8015611bf35780601f10611bc857610100808354040283529160200191611bf3565b820191906000526020600020905b815481529060010190602001808311611bd657829003601f168201915b50505050508152602001600782015481526020016008820154815260200160098201548152602001600a820160009054906101000a900460ff161515151581525050828281518110611c4857611c4761283a565b5b60200260200101819052508080611c5e90612898565b9150506118e8565b5080915050919050565b604051806101c0016040528060608152602001600073ffffffffffffffffffffffffffffffffffffffff168152602001600073ffffffffffffffffffffffffffffffffffffffff1681526020016000815260200160008152602001600015158152602001600015158152602001600015158152602001600015158152602001606081526020016000815260200160008152602001600081526020016000151581525090565b828054611d2190612808565b90600052602060002090601f016020900481019282611d435760008555611d8a565b82601f10611d5c57805160ff1916838001178555611d8a565b82800160010185558215611d8a579182015b82811115611d89578251825591602001919060010190611d6e565b5b509050611d979190611d9b565b5090565b5b80821115611db4576000816000905550600101611d9c565b5090565b6000604051905090565b600080fd5b600080fd5b600080fd5b600080fd5b6000601f19601f8301169050919050565b7f4e487b7100000000000000000000000000000000000000000000000000000000600052604160045260246000fd5b611e1f82611dd6565b810181811067ffffffffffffffff82111715611e3e57611e3d611de7565b5b80604052505050565b6000611e51611db8565b9050611e5d8282611e16565b919050565b600067ffffffffffffffff821115611e7d57611e7c611de7565b5b611e8682611dd6565b9050602081019050919050565b82818337600083830152505050565b6000611eb5611eb084611e62565b611e47565b905082815260208101848484011115611ed157611ed0611dd1565b5b611edc848285611e93565b509392505050565b600082601f830112611ef957611ef8611dcc565b5b8135611f09848260208601611ea2565b91505092915050565b600060208284031215611f2857611f27611dc2565b5b600082013567ffffffffffffffff811115611f4657611f45611dc7565b5b611f5284828501611ee4565b91505092915050565b6000819050919050565b611f6e81611f5b565b8114611f7957600080fd5b50565b600081359050611f8b81611f65565b92915050565b600060208284031215611fa757611fa6611dc2565b5b6000611fb584828501611f7c565b91505092915050565b600073ffffffffffffffffffffffffffffffffffffffff82169050919050565b6000611fe982611fbe565b9050919050565b611ff981611fde565b82525050565b60006020820190506120146000830184611ff0565b92915050565b61202381611fde565b811461202e57600080fd5b50565b6000813590506120408161201a565b92915050565b60006020828403121561205c5761205b611dc2565b5b600061206a84828501612031565b91505092915050565b600081519050919050565b600082825260208201905092915050565b60005b838110156120ad578082015181840152602081019050612092565b838111156120bc576000848401525b50505050565b60006120cd82612073565b6120d7818561207e565b93506120e781856020860161208f565b6120f081611dd6565b840191505092915050565b6000602082019050818103600083015261211581846120c2565b905092915050565b600081519050919050565b600082825260208201905092915050565b6000819050602082019050919050565b600082825260208201905092915050565b600061216582612073565b61216f8185612149565b935061217f81856020860161208f565b61218881611dd6565b840191505092915050565b61219c81611fde565b82525050565b6121ab81611f5b565b82525050565b60008115159050919050565b6121c6816121b1565b82525050565b60006101c08301600083015184820360008601526121ea828261215a565b91505060208301516121ff6020860182612193565b5060408301516122126040860182612193565b50606083015161222560608601826121a2565b50608083015161223860808601826121a2565b5060a083015161224b60a08601826121bd565b5060c083015161225e60c08601826121bd565b5060e083015161227160e08601826121bd565b506101008301516122866101008601826121bd565b506101208301518482036101208601526122a0828261215a565b9150506101408301516122b76101408601826121a2565b506101608301516122cc6101608601826121a2565b506101808301516122e16101808601826121a2565b506101a08301516122f66101a08601826121bd565b508091505092915050565b600061230d83836121cc565b905092915050565b6000602082019050919050565b600061232d8261211d565b6123378185612128565b93508360208202850161234985612139565b8060005b8581101561238557848403895281516123668582612301565b945061237183612315565b925060208a0199505060018101905061234d565b50829750879550505050505092915050565b600060208201905081810360008301526123b18184612322565b905092915050565b6000806000606084860312156123d2576123d1611dc2565b5b60006123e086828701612031565b935050602084013567ffffffffffffffff81111561240157612400611dc7565b5b61240d86828701611ee4565b925050604084013567ffffffffffffffff81111561242e5761242d611dc7565b5b61243a86828701611ee4565b9150509250925092565b61244d81611f5b565b82525050565b60006020820190506124686000830184612444565b92915050565b60008060006060848603121561248757612486611dc2565b5b600084013567ffffffffffffffff8111156124a5576124a4611dc7565b5b6124b186828701611ee4565b93505060206124c286828701612031565b92505060406124d386828701611f7c565b9150509250925092565b6124e6816121b1565b82525050565b600060208201905061250160008301846124dd565b92915050565b6000806040838503121561251e5761251d611dc2565b5b600083013567ffffffffffffffff81111561253c5761253b611dc7565b5b61254885828601611ee4565b925050602061255985828601612031565b9150509250929050565b60006101c0830160008301518482036000860152612581828261215a565b91505060208301516125966020860182612193565b5060408301516125a96040860182612193565b5060608301516125bc60608601826121a2565b5060808301516125cf60808601826121a2565b5060a08301516125e260a08601826121bd565b5060c08301516125f560c08601826121bd565b5060e083015161260860e08601826121bd565b5061010083015161261d6101008601826121bd565b50610120830151848203610120860152612637828261215a565b91505061014083015161264e6101408601826121a2565b506101608301516126636101608601826121a2565b506101808301516126786101808601826121a2565b506101a083015161268d6101a08601826121bd565b508091505092915050565b600060208201905081810360008301526126b28184612563565b905092915050565b6126c3816121b1565b81146126ce57600080fd5b50565b6000813590506126e0816126ba565b92915050565b600080600080600060a0868803121561270257612701611dc2565b5b600086013567ffffffffffffffff8111156127205761271f611dc7565b5b61272c88828901611ee4565b955050602061273d88828901612031565b945050604061274e888289016126d1565b935050606061275f88828901611f7c565b925050608061277088828901611f7c565b9150509295509295909350565b6000806040838503121561279457612793611dc2565b5b60006127a285828601612031565b925050602083013567ffffffffffffffff8111156127c3576127c2611dc7565b5b6127cf85828601611ee4565b9150509250929050565b7f4e487b7100000000000000000000000000000000000000000000000000000000600052602260045260246000fd5b6000600282049050600182168061282057607f821691505b60208210811415612834576128336127d9565b5b50919050565b7f4e487b7100000000000000000000000000000000000000000000000000000000600052603260045260246000fd5b7f4e487b7100000000000000000000000000000000000000000000000000000000600052601160045260246000fd5b60006128a382611f5b565b91507fffffffffffffffffffffffffffffffffffffffffffffffffffffffffffffffff8214156128d6576128d5612869565b5b600182019050919050565b600081905092915050565b60006128f782612073565b61290181856128e1565b935061291181856020860161208f565b80840191505092915050565b600061292982846128ec565b915081905092915050565b7f5265636f7264206e6f7420666f756e6421000000000000000000000000000000600082015250565b600061296a60118361207e565b915061297582612934565b602082019050919050565b600060208201905081810360008301526129998161295d565b9050919050565b60008190508160005260206000209050919050565b600081546129c281612808565b6129cc818661207e565b945060018216600081146129e757600181146129f957612a2c565b60ff1983168652602086019350612a2c565b612a02856129a0565b60005b83811015612a2457815481890152600182019150602081019050612a05565b808801955050505b50505092915050565b6000606082019050612a4a6000830186611ff0565b8181036020830152612a5c81856129b5565b90508181036040830152612a7081846120c2565b9050949350505050565b7f73747564656e7420686173206e6f74207965742066696e69736865642061736960008201527f676e6d656e742100000000000000000000000000000000000000000000000000602082015250565b6000612ad660278361207e565b9150612ae182612a7a565b604082019050919050565b60006020820190508181036000830152612b0581612ac9565b9050919050565b7f796f752063616e6e6f7420677261646520746869732061737369676e6d656e7460008201527f2100000000000000000000000000000000000000000000000000000000000000602082015250565b6000612b6860218361207e565b9150612b7382612b0c565b604082019050919050565b60006020820190508181036000830152612b9781612b5b565b9050919050565b6000608082019050612bb36000830187612444565b612bc06020830186611ff0565b8181036040830152612bd281856129b5565b90508181036060830152612be681846129b5565b905095945050505050565b7f4f6e6c792074656163686572732063616e20637265617465207265636f72647360008201527f2100000000000000000000000000000000000000000000000000000000000000602082015250565b6000612c4d60218361207e565b9150612c5882612bf1565b604082019050919050565b60006020820190508181036000830152612c7c81612c40565b9050919050565b6000606082019050612c986000830186612444565b612ca56020830185611ff0565b8181036040830152612cb781846120c2565b9050949350505050565b6000604082019050612cd66000830185611ff0565b8181036020830152612ce881846129b5565b9050939250505056fea264697066735822122094d51b1179dd9c717a31fbeea64d77426a9927b51ec4f3bf0782eb4d7bf1455564736f6c634300080c0033",
  "immutableReferences": {},
  "source": "pragma solidity ^0.8.0;\r\nimport \"./Color.sol\";\r\n\r\ncontract EduChain {\r\n\r\n    address[] public teachers;\r\n    string[] public courses;\r\n    mapping(address => bool)  teacherExists;\r\n    string public version;\r\n    address admin;\r\n    uint256 schoolRecordIndex;\r\n    Color color;\r\n\r\n\r\n    struct SchoolRecord{\r\n        string subject;\r\n        address professor;\r\n        address student;\r\n        uint256 grade;\r\n        uint256 credits;  //per point\r\n        bool mandatorySubmit;\r\n        bool graded;\r\n        bool submitted;\r\n        bool late;\r\n        string resourceIPFS;\r\n        //dates\r\n        uint timeOpened;\r\n        uint submitDeadline;\r\n        uint lastUpdated;\r\n        bool exists;\r\n    }\r\n\r\n    mapping(uint256 => SchoolRecord) schoolRecords;\r\n    mapping(address => uint256[]) studentRecords;\r\n    mapping(string => mapping(address => uint256)) positionInSchoolRecord;\r\n    mapping(address => uint256[]) recordsAssignedByTeacher;\r\n    //mapping(address => mapping(string => uint256[])) recordsAssignedByTeacher;\r\n\r\n    //mapping(string => uint) courses;\r\n\r\n\r\n    event TeacherRegistered(address teacher);\r\n    event SchoolRecordCreated(uint256 id, address teacher, string subject);\r\n    event SchoolRecordSubmited(address student, string subject, string resourceURL);\r\n    event SubmissionRemoved(address student, string subject);\r\n    event SchoolRecordGraded(uint256 id, address teacher, string subject, string resourceURL);\r\n\r\n\r\n    constructor(string memory _version){\r\n        admin = msg.sender;\r\n        version = _version;\r\n        schoolRecordIndex = 0;\r\n    }\r\n\r\n      function getAdmin() public view  returns (address){\r\n        //for test purposes only; delete from final form of contract\r\n        return admin;\r\n    }\r\n\r\n    function addTeacher(address _teacher) public{\r\n        require(msg.sender == admin && !teacherExists[_teacher]);\r\n\r\n        //push the address into the teachers array, and set teacherExists to true for the teacher\r\n        teachers.push(_teacher);\r\n        teacherExists[_teacher] = true;    \r\n\r\n        emit TeacherRegistered(_teacher);    \r\n    }\r\n\r\n    function addSchoolRecord(string memory _subject, address _student, bool _mandatorySubmit, uint256 _credits, uint256 deadLine) public returns(uint256){\r\n        require(teacherExists[msg.sender], \"Only teachers can create records!\");\r\n\r\n\r\n        //increment the schoolRecordIndex and initialize a new SchoolRecord from the array\r\n        schoolRecordIndex++;\r\n        SchoolRecord storage record = schoolRecords[schoolRecordIndex];\r\n\r\n\r\n        //fill the record with data\r\n        record.subject = _subject;\r\n        record.professor = msg.sender;\r\n        record.student = _student;\r\n        record.credits = _credits;\r\n        record.exists = true;\r\n        record.graded = false;\r\n        record.mandatorySubmit = _mandatorySubmit;\r\n        if(_mandatorySubmit == false){\r\n        record.submitted = true;\r\n        }\r\n        else\r\n        {\r\n        record.submitted = false;\r\n        }\r\n        record.late=false;\r\n        record.timeOpened = block.timestamp;\r\n        record.submitDeadline = deadLine;\r\n\r\n        //store record index for student\r\n        studentRecords[_student].push(schoolRecordIndex);\r\n        positionInSchoolRecord[_subject][_student] = schoolRecordIndex;\r\n\r\n        //store record index for teacher\r\n        recordsAssignedByTeacher[msg.sender].push(schoolRecordIndex);\r\n        courses.push(_subject);\r\n\r\n        //emit event and return the schoolRecordIndex\r\n        emit SchoolRecordCreated(schoolRecordIndex, msg.sender, _subject);\r\n        return schoolRecordIndex;\r\n    }\r\n\r\n    function submitSchoolRecord(address _student, string memory _subject, string memory _resourceURL)public returns(uint256){\r\n        //init record and check if it exists and it is assignet to the student who submits it.\r\n        SchoolRecord storage record = schoolRecords[positionInSchoolRecord[_subject][_student]];\r\n        require(record.exists, \"Record not found!\");\r\n        require(record.student == msg.sender);\r\n        //require to check if deadline is met;\r\n\r\n        record.resourceIPFS = _resourceURL;\r\n        record.submitted = true;\r\n\r\n        if(record.submitDeadline > block.timestamp){\r\n        record.late=true;\r\n        }\r\n        record.lastUpdated = block.timestamp;\r\n        emit SchoolRecordSubmited(msg.sender, record.subject, _resourceURL);\r\n        return block.timestamp;\r\n    }\r\n\r\n     function removeSubmission(address _student, string memory _subject)public returns(uint256){\r\n        //init record and check if it exists and it is assignet to the student who submits it.\r\n        SchoolRecord storage record = schoolRecords[positionInSchoolRecord[_subject][_student]];\r\n        require(record.exists, \"Record not found!\");\r\n        require(record.student == msg.sender);\r\n        //require to check if deadline is met;\r\n\r\n        record.resourceIPFS = \"\";\r\n        record.submitted = false;\r\n        record.lastUpdated = block.timestamp;\r\n        emit SubmissionRemoved(msg.sender, record.subject);\r\n        return block.timestamp;\r\n    }\r\n\r\n    function gradeSchoolRecord(string memory _subject, address _student, uint _grade)public{\r\n        uint index = positionInSchoolRecord[_subject][_student];\r\n        SchoolRecord storage record = schoolRecords[index];\r\n        require(record.exists, \"Record not found!\");\r\n        require(record.mandatorySubmit && bytes(record.resourceIPFS).length != 0, \"student has not yet finished asignment!\");\r\n        require(record.professor == msg.sender, \"you cannot grade this assignment!\");\r\n        record.grade = _grade;\r\n        record.graded = true;\r\n        record.lastUpdated = block.timestamp;\r\n\r\n        //some logic for sending grade * credits tokens to student;\r\n        //return record._grade * record._credits;\r\n\r\n        emit SchoolRecordGraded(index, msg.sender, record.subject, record.resourceIPFS);\r\n    }\r\n\r\n    function getRecordOfStudent(string memory _subject, address _student) public view returns(SchoolRecord memory){\r\n        uint index = positionInSchoolRecord[_subject][_student];\r\n\r\n        //return a particular record of a student, based on a subject\r\n        SchoolRecord storage record = schoolRecords[index];\r\n        return record;\r\n    }\r\n\r\n     function getAllRecordsOfStudent(address _student) public view returns(SchoolRecord[] memory){\r\n         SchoolRecord[] memory recordsOfStudent=  new SchoolRecord[](studentRecords[_student].length);\r\n       for(uint256 i = 0; i < studentRecords[_student].length; i++){\r\n           recordsOfStudent[i]=schoolRecords[studentRecords[_student][i]];\r\n       }\r\n        return recordsOfStudent;\r\n    }\r\n\r\n     function getAllRecordsOfTeacher(address _teacher) public view returns(SchoolRecord[] memory){\r\n         SchoolRecord[] memory recordsOfTeacher = new SchoolRecord[](recordsAssignedByTeacher[_teacher].length);\r\n        \r\n        for(uint256 i = 0; i <recordsAssignedByTeacher[_teacher].length; i++){\r\n            recordsOfTeacher[i] = schoolRecords[recordsAssignedByTeacher[_teacher][i]];\r\n            }\r\n        \r\n        return recordsOfTeacher;\r\n     }\r\n    \r\n    function isTeacher() public view returns(bool){\r\n        return teacherExists[msg.sender];\r\n    }\r\n    function addColor(string memory _color) public{\r\n        color.mint(_color);\r\n    }\r\n\r\n    \r\n}",
  "sourcePath": "C:\\Users\\crist\\work\\nft\\src\\contracts\\EduChain.sol",
  "compiler": {
    "name": "solc",
    "version": "0.8.12+commit.f00d7308.Emscripten.clang"
  },
  "schemaVersion": "3.4.5",
  "updatedAt": "2022-05-06T13:17:31.551Z",
  "networkType": "ethereum",
  "devdoc": {
    "kind": "dev",
    "methods": {},
    "version": 1
  },
  "userdoc": {
    "kind": "user",
    "methods": {},
    "version": 1
  }
}